:100000006F00C017000000007A0100007A010000B4
:1000100000000000000000000000000000000000E0
:1000200000000000000000000000000000000000D0
:100030007A010000000000007A01000000000000CA
:100040007A0100007A0100007A0100007A010000C4
:100050007A0100007A0100007A0100007A010000B4
:100060007A0100007A0100007A0100007A010000A4
:100070007A0100007A0100007A0100007A01000094
:100080007A0100007A0100007A0100007A01000084
:100090007A0100007A0100007A01000000000000EF
:1000C000511126C022C206C4828282441244A24038
:1000D000310182802A86014593F6150091C232953E
:1000E00085810606F5F9828000000000634E050256
:1000F00063C305042E86AA857D5515C2854663789F
:10010000B6006356C00006068606E36CB6FE0145DF
:1001100063E4C500918D558D85820582F5FA828054
:100120008682C93F2E8582823305A0406347B00096
:10013000B305B040C1B7B305B0408682653F330513
:10014000A0408282868263C70500634905005D374F
:100150002E858282B305B040E35B05FE3305A040E7
:10016000513F3305B040828200002A8311C623002C
:10017000B3007D16050365FE828001A09701002073
:1001800093814172138101F61305000C970500203D
:10019000938545E7170600201306C6E663FAC500F7
:1001A0008322050023A0550011059105E3EAC5FE51
:1001B00017250000130585A997050020938585E480
:1001C0001386C18063FAC5008322050023A0550071
:1001D00011059105E3EAC5FE1385C18093858182EF
:1001E0006377B500232005001105E36DB5FE896234
:1001F00093820288739002308D42739042809702FE
:100200000000938222E093E2320073905230F12397
:10021000EF00400197020000938222317390123464
:1002200073002030EFF2DFE9371402401C4037073B
:10023000FFF8414593E717001CC05C40F98F5CC094
:100240001C403707F7FE7D17F98F1CC01C4037078D
:10025000FCFF7D17F98F1CC05C4041777D17F98F3B
:100260005CC0B7079F001CC4D1261C4C93E7070253
:100270001CCCB71701409387074098431377F7F0DA
:1002800098C398431367070898C3094798CBB7F7F3
:10029000FF1F03C5477D9307F00F6304F5007D89B9
:1002A0007126B72702409843C176FD16719B98C30B
:1002B00098431367170098C3B7170240D843D8C3B1
:1002C000D843758FD8C3D843B7060001D8C3984325
:1002D000558F98C3B70600029843758F75DFD843D2
:1002E000B7160240719BD8C3D84313672700D8C301
:1002F0002147DC42B18BE39EE7FEC1BB37170240CA
:100300005C43A146B18B6392D7045C433775DC0232
:10031000130505C0B7160240D842B70700209387DF
:10032000070011833D8BBA979C23D84293F5F70FB2
:1003300013770708B357F50011EFEFF27FD85D3B55
:10034000370700202328A70049B337356E0113056E
:100350000560C9B7370700202328F7008280EFF235
:100360003FD6B707002003A50701B7157A0093858C
:10037000052049331375F50F2383A1829317550088
:10038000898F8A073E950E052392A1823DBBEFF22D
:100390003FD337F400E05C40AA85F99B5CC003D5ED
:1003A00041820D3B08C8232404001C4093E717003A
:1003B0001CC0B7F700E0D843058B75DF9843799BE5
:1003C00098C321B3EFF2DFCF2A841165111185455F
:1003D00013050502F52C930700027C8037150140B8
:1003E0008D473EC28A85E147130505403EC4752A04
:1003F00022C637440140B70708006C00130504808B
:100400003ECA02C8231C0100DD2485451305048073
:10041000552671015DB9EFF2BFCA61112EC232C01B
:10042000014482476358F402B7440140B747014092
:100430009305000413850780612E6DD992471385BB
:100440000480B3868700838506000504C205C18148
:10045000A52EC1BF024521018DB9B7060020AA878C
:1004600003A5460113878182AA9763E9E7001387F2
:1004700001E66365F70023AAF60082807D5582803D
:1004800082808280EFF2DFC351118545130540035E
:10049000B714014002C002C202C41D2C1304800420
:1004A00089478A85138504407C8022C4FD28B14792
:1004B0008A85371501407C8022C4C52899478A85E2
:1004C000138504807C8022C4CD203101FDBEEFF273
:1004D0003FBF37150140894513050540912233344C
:1004E000A000914537150140252A19C11364240045
:1004F000A145371501402D2219C113644400371559
:100500000140914513050580212A19C11364840017
:1005100037150140894513050580192219C1136457
:10052000040122855DB6EFF2BFB97111C13B053DF3
:100530007165130505207935B1370965130505B0D7
:1005400091210965130505B23529896449372A8443
:10055000138504B4E52C81478966B355F4401385AF
:1005600046B485893EC0DD248247154789668507E4
:10057000E395E7FE0965130585B4C92C91478966A3
:10058000B355F4401385C6B485893EC0C124824763
:100590007D578966FD17E395E7FE0965130505B5E7
:1005A000D52613054006E53355B7944593F7060164
:1005B00013F3F60081C7DC413363F30083D20500F7
:1005C00093F7F20FA9CF0C41611122C226C08147D7
:1005D000930380023D449304800405473317F700DA
:1005E00033F6E2006310C7026397760258C9139688
:1005F00027003317C4001347F7FF6D8F3316C3006E
:10060000B365E60085072147E399E7FC12440CC176
:10061000824421018280E39C96FC18C9C9BF828074
:100620001C4533F5F5003335A000828037170240B2
:100630001C430E0593F777F05D8D08C38280EFF2BF
:100640003FA8371702405C43A1462A84B18B639CC4
:10065000D7065C43B777DC02938707C01CC0371608
:1006600002405442370700201307C7029182BD8A17
:100670003697082358429375F50F1377070833D53B
:10068000A70019E33E85BD3448C008C448C4B71765
:100690000240DC438D46AD83FD8B13D737008A07BC
:1006A000F18BD98F13F6370113F7370063F4C600C7
:1006B000138747FFB707002093878701BA978C23DA
:1006C000153C08C819B4B7376E019387076079B72E
:1006D00099C5371702401C4FC98F1CCF8280B717AE
:1006E0000240984F1345F5FF798D88CF8280EFF255
:1006F0003F9D1629F577FD17FD8EFE21DA25211184
:10070000D58F1EA95625FD779387379FFD8EDE2155
:100710002A84AE84D58F9625D58FB625D58F5EA534
:100720005E29C207C18393F7F7CFD98F5EA948002E
:100730003937B7470140938707806310F406C247F3
:10074000139517005A243E950E053E959317070101
:10075000C1878C4063D507048605693A9305400636
:100760002AC0493A824793144500930540063E85C6
:10077000453A5E24C207C18763D507020E0593057B
:10078000400613052503EFF0FF961D89C98CC204AE
:10079000C18006A461016FF05F93B24755B78A0527
:1007A0006DBF12059305400613052503EFF09F94D6
:1007B0003D89E9BF5E2589C50967D98F5EA582801D
:1007C00079777D17F98FDDBF93F5F51F4EA18280F4
:1007D0000A216D8D3335A0008280511122C2171776
:1007E00000001307A7461714000013042446198CB1
:1007F00026C006C40984814463948402171700004C
:100800001307C7441714000013044444198C0984C7
:10081000814463928402A240124482443101828066
:1008200093972400BA979C4385048297171700007A
:100830001307C741D1B793972400BA979C43850407
:1008400082971717000013076740E1B7130181FD76
:1008500022C606C82A842ECA32CC36CE3AD03ED220
:10086000170500200325058411C51C4D81E72AC00A
:10087000B92302450C455408228636C2EF00B01E4B
:10088000C2403244130181028280411126C206C651
:1008900022C42EC0AA8419E11C450290184D31EFE4
:1008A000392B984C804421CF171700001307C72E0F
:1008B000631AE404C0407850058B19E75A24137773
:1008C000072019E3284C8D255A24218B19C3184879
:1008D0002DE7A2852685B52A2DC1FD547C50858B38
:1008E00099E75E2493F7072099E3284C3D2DB24009
:1008F00022442685924441018280004575B72685B1
:100900007D295DB717170000130707276314E4005C
:10091000804455B71717000013070724E31DE4F8B8
:10092000C04451BF824718C485073EC063480702D0
:1009300018409306170014C00CA3824718448C2358
:100940007D17EDF118C4635807022286A945268554
:100950008120FD57E303F5F8A94449B7144C6345DA
:10096000D7002947E396E5FC2286268515207D578A
:10097000E315E5FC9DB71C401387170018C02947F5
:1009800098A3D9BFAA8517F5FF1F0325A571F5BD4B
:10099000311122C626C406C8AA87AE84328411C586
:1009A000184D01E72AC021298247171700001307B5
:1009B000A71E6317E402C043184C18C45A24218BA5
:1009C00019C3184815EF3E85A2853EC059208247BD
:1009D00005C9FD54C24032442685A244510182809B
:1009E00017170000130747196314E4008047E9B79D
:1009F0001717000013074716E310E4FCC0476DBF4C
:100A00001848084093F6F40F93F4F40F198D5848E2
:100A1000634AE5003E85A28536C23EC0B9248247BE
:100A2000924645F9184405057D1718C41840130669
:100A3000170010C014A358486308A7005A24058B58
:100A400051DB2947E398E4F8A2853E85392C59D13A
:100A500049B7411122C426C206C6AA8417F5FF1F52
:100A6000032545642E8411C51C4D81E72AC0812EC3
:100A7000024597170000938727126312F402404142
:100A80008317C40013F787003DE313F7070105EB55
:100A9000254798C093E707045EA47D5571A097177A
:100AA00000009387670D6314F4000045D1BF9717CA
:100AB00000009387670AE315F4FC4045D1B7918B9A
:100AC0009DC34C5889C9930744046384F500268567
:100AD0009123232A04025E242322040093F7B7FD06
:100AE0005EA41C481CC05E2493E787005EA41C48DB
:100AF00099EB5E241307002093F707286385E7002E
:100B0000A285268559218317C40013F7170015C342
:100B10005848232404003307E04018CC1848014506
:100B200001E713F707083DF7B24022449244410120
:100B3000828013F72700814611E3544814C4F9BF9B
:100B40008397C500311122C606C826C493F68700D4
:100B50002A872E84F1E6D4416345D000B44163591D
:100B6000D0080323C40263050308B1830443858BC3
:100B7000232007000C50B1CB70485E24918B99C79D
:100B80005C401D8E5C5899C33C401D8E5C540C50DB
:100B90003A8581463AC08297FD570247630CF504B7
:100BA0001C488566232204001CC05E24F58F91C377
:100BB00068C84C5804C38DCD930744046384F50082
:100BC0003A858929232A040225A001463A858546CB
:100BD0003AC00293FD5702472A86E310F5FA1C43F8
:100BE000C9DFF5466385D700D9466392D70604C3AB
:100BF0000145A5A014438317C40081CE75466385C3
:100C0000C60059466397C6041C48232204001CC032
:100C10004DB71448B1832322040014C0858B41BF13
:100C2000904979D684418D8B90C1918C814691E316
:100C3000D44914C4E35E90FA1C540C503A85A6863D
:100C400032C23AC0829702471246634DA000831712
:100C5000C40093E707045EA47D55C2403244A24419
:100C6000510182802A96898CF1B79C49511106C4A2
:100C700022C226C081EB8144A240124426858244D0
:100C800031018280AA842E8401C51C4D91E3052A7E
:100C900097170000938747F0631CF402C040831746
:100CA000C400F1DB7850058B11E793F7072099E337
:100CB000284C9D2C2685A28561357C50AA84858B85
:100CC000C5FF5E2493F70720C5FB284CB92C6DB7F0
:100CD00097170000938747EA6314F4008044C1B774
:100CE00097170000938747E7E31BF4FAC04445BF1A
:100CF000511122C206C42A844EA572A523200500E4
:100D000023220500232405002322050623280500AD
:100D1000232A0500232C0500214681451305C5051E
:100D2000EFF0AFC497170000938767835CD09717E5
:100D30000000938787851CD4971700009387E78866
:100D40005CD4971700009387478BA24000D01CD833
:100D500012443101828097050000938545F1B5A2C8
:100D600041111387F5FF22C4131417003A940A04A3
:100D70003A940E042EC09305440726C206C64126A7
:100D8000AA8401CD824723200500130684065CC196
:100D9000310588C48145EFF04FBDB240224426851D
:100DA00092444101828013850181BDAA138501818E
:100DB000ADAA138541818DAA13854181BDA2511130
:100DC00022C206C42A84F5371C4C89C71244A240AB
:100DD0003101DDB797070000938727F81CD423243F
:100DE0000404232604042328040483A78180639435
:100DF000870085471CCC22853D2048C022852520C0
:100E000008C422850D2048C4484001469145CD358F
:100E100008440546A545E93D48440946C945C93D3C
:100E200085471CCC65B7411122C426C206C6AA84D8
:100E30009D3F03A481801C4C99E322854937930789
:100E400084048047D8437D1763560700984335C311
:100E50009C43C5BF8316C400B1EAC17785075CC453
:100E600013058405232204067D2889372146232083
:100E70000400232404002322040023280400232A3E
:100E80000400232C040081451305C405EFF0EFADE9
:100E9000232A0402232C040223240404232604040A
:100EA000B240228522449244410182801304840688
:100EB00059BF914526853EC0653582472A8488C33F
:100EC00041F9ED35B1479CC0E1BF111122CA06CCF2
:100ED00026C8AA87AE8613048504014704445040FF
:100EE0007D16635A0600004075F8E2405244C24441
:100EF0003A8571018280CA24854563F3A502039572
:100F0000E400FD55630EB5003E85A6853AC632C4A1
:100F10003EC236C082963247224692478246498F69
:100F20009384840675BF828082808280AE87839599
:100F3000E5005971A6D286D6A2D4B28463D0050248
:100F4000DE2793F7070895EF13070040B6502654A5
:100F50009CC298C001459654656182801304F100DB
:100F60006198228636C23EC0DD2582479246E3491B
:100F700005FC5840BD67F98F7977BA9793B717008A
:100F8000E1B7814713070004D1B7DA25111122CA4E
:100F900006CC26C82AC0098B2E8401CF13077404FF
:100FA00018C018C8054758C8E2405244C2447101ED
:100FB0008280740030009D3FA245AA8402452EC263
:100FC0003D2A924519E90317C40093760720E9FEEC
:100FD000719B136727005AA4D1B7824717070000F7
:100FE0001307A7D798D75A2408C008C8136707085B
:100FF0005AA432474CC819CB8315E4003E85A52D71
:1010000011C55A24719B136717005AA45A24458F9F
:101010005AA459BFD1CD83A7C5FF411122C406C62A
:101020001384C5FF63D307003E942AC04D2D138758
:10103000C1811C43024581EB2322040000C32244EA
:10104000B24041014DA5637DF4001040B306C400D9
:101050006396D7009443DC43B29614C05CC0F9BFDA
:101060003E87DC4399C3E37DF4FE14433306D70087
:10107000631F86001040B29614C33306D700E39076
:10108000C7FC9043DC43B29614C35CC34DBF637589
:10109000C400B1471CC165B71040B306C4006396D5
:1010A000D7009443DC43B29614C05CC040C341BF38
:1010B0008280411126C293848181984022C406C651
:1010C0002AC02E8401E78145AD2188C00245A28552
:1010D000FD548521631995007D54B2402285224438
:1010E000924441018280130435007198E30785FE24
:1010F000B305A44002453529E31195FEF1BF93875E
:1011000035003111F19B26C406C822C62AC093843B
:101110008700314763F8E406B14463E7B40602454B
:101120007D2B1383C181032703003A843DE40245EC
:10113000A68541377D572A841383C1816315E50C49
:101140000324030022875DE718400245814522976A
:101150003AC2C52612476312A70A1C409385340081
:101160009D8DF19993848500B14763F3F400B144F8
:101170000245A6853D3FFD576301F5081C40A69733
:101180001CC02DA8E3DB04F80247B1471CC301458E
:10119000C2403244A244510182801040058E63480F
:1011A0000604AD4663FDC60204C0B3069400631690
:1011B00087022320D3005C4090C2DCC20245252375
:1011C0001305B4009307440061993307F540E30128
:1011D000F5FC3A94898F1CC065BF54C3E9BF5C40DD
:1011E000631587002320F300D1BF5CC3C1BF2287F2
:1011F00040402DBF3A845843B9B70247B1471CC39A
:101200003A85D52169B704C155BF1C46FD171CC6D8
:1012100063DA0700184E63C5E700A9476394F50039
:101220006FF00FF71C422E851387170018C28CA38E
:101230008280311122C626C406C82AC02EC2B284BA
:101240003304D60063948400014509A88C2012461B
:10125000024585045D3F7D57E316E5FEC2403244FA
:10126000A24451018280130181F722C1A6DE9307B7
:10127000F10106C32AC032C236C6AE8413F487FF1A
:1012800001C5184D11E3253E171700001307C7903D
:101290006391E4048247C443F850058B19E7DA24CC
:1012A0001377072019E3A84C4131DA24218B19C3A5
:1012B000984829EB0245A685EFF0AFF921C5FC500F
:1012C000858B95CB7D559A400A44F65413018108CD
:1012D0008280171700001307278A6395E40082476E
:1012E00084475DBF1717000013070787E396E4FAEA
:1012F0008247C44755B7DE2493F70720E1F7A84C8F
:101300002D31C9B7B2471307000218BC13070003F9
:10131000232A040038AC3ECA924713065002942395
:1013200099C26394C60A1247B386E7406380E70216
:1013300002453A86A6853EC836C6E53D7D56630F12
:10134000C51A5048B246C247369650C894236387A0
:10135000061A7D578507232004002326040058C061
:1013600023240400A3010404232C04048C23154625
:1013700017150000130545843EC2B126924714405C
:101380001387170029E513F6060109C613060002A4
:10139000A301C40413F6860009C61306B002A30114
:1013A000C4048C231306A002638FC50254443E87F5
:1013B0008142A545102313051700130606FD63F8A7
:1013C000C506638A020254C43DA0850789BF17067B
:1013D00000001306667E118D05463316A600D18ED9
:1013E00014C0BA8761B752469305460010422ECA10
:1013F0006348060250C410239306E0026311D60628
:1014000010339306A002631DD602D2460907138645
:101410004600944232CA63D30600FD5654C081A0F0
:101420003306C04093E6260050C414C0E9B71397B2
:10143000260036970607B306C70085422A879DBF58
:1014400005072322040081428146A5451023130588
:101450001700130606FD63F9C506E39102FC0C2391
:101460000D46170500001305A5753AC2A92C1247B1
:1014700011CD970600009386A674158D14401306AF
:1014800000043316A600D18E050714C00C23930761
:1014900017001946170500001305C5723EC20CACB3
:1014A0001D2435CD130700000DEB1840524613776D
:1014B00007109306860019C39306460036CA58489B
:1014C000A2473E9758C889BD13972600369706074E
:1014D000B306C70085422A8795BF0245580897067C
:1014E0000000938646D52686A28597000000E70077
:1014F00000002AC4A2477D57E393E7FCF850058B10
:1015000001EBDA241377072001E7A84CEFF0FFA1E5
:10151000DA2413770704E31707DA48486DB3024566
:10152000580897060000938606D12686A285C12416
:10153000C9B7511122C22A842E8523A0018206C474
:10154000EFE0BFF1FD576316F50083A7018291C359
:101550001CC0A240124431018280511122C22E844B
:101560008395E50006C40D2B634905007C48AA97C6
:101570007CC8A2401244310182805E247D777D17B1
:10158000F98F5EA4FDB7DA25311122C626C406C83C
:101590002AC032C2137707102E84B68411C78395F0
:1015A000E50089460146DD285A24FD76FD16758F33
:1015B0008315E4005AA4324412460245C240A6866E
:1015C000A244510125A8511122C22E848395E50021
:1015D00006C4E9207D575E24631AE5007D777D17F8
:1015E000F98F5EA4A2401244310182800567D98F31
:1015F0005EA468C8C5BF8395E5003DA0511122C215
:101600002A842E85B285368623A0018206C4EFE0A7
:101610009FE0FD576316F50083A7018291C31CC0AC
:10162000A240124431018280511122C22A842E85A7
:1016300023A0018206C47121FD576316F50083A71C
:10164000018291C31CC0A240124431018280511119
:1016500022C22A842E85B28523A0018206C4852950
:10166000FD576316F50083A7018291C31CC0A240F9
:10167000124431018280511122C22A842E8523A076
:10168000018206C49929FD576316F50083A70182DC
:1016900091C31CC0A240124431018280511122C268
:1016A0002A842E85B285368623A0018206C4252988
:1016B000FD576316F50083A7018291C31CC0A240A9
:1016C00012443101828093F5F50F2A966314C50008
:1016D000014582801C21E38EB7FE0505C5BF138539
:1016E000C1806FF07F841385C1806FF01F8401116A
:1016F00026CA36C2BA849445984922CC06CE2AC05E
:10170000AE8732846353D700368718C083C6370448
:1017100099C2050718C098431377070201C71840FC
:10172000090718C0984313869701198B29CF98434E
:1017300083C6370413770702B336D0002DEF9245E6
:101740000245138637043EC482947D57630FE50437
:10175000A247114601479443998A6398C600D84727
:101760001440158F6353070001479447904B63540F
:10177000D600918E369701441386A701631C870417
:1017800001452DA00507D4470C408D8EE351D7FAB3
:101790009245024585463EC83AC632C48294FD56FB
:1017A00022463247C247E31FD5FC7D55F2406244D2
:1017B000D244056182803386D70093050003A301DC
:1017C000B60403C65704138716003E978906A30183
:1017D000C704B5B79245024585463AC632C48294DD
:1017E000FD57E304F5FC32472246050441BF1301CF
:1017F00041FD22D206D426D036C4942D2E8432C286
:101800002AC0138635049305800763E0D50293054B
:10181000200663E1D50263830620930580059702C5
:1018200000009382A23A638AB6169304240423012B
:10183000D40415A89385D6F993F5F50F5545E366BD
:10184000B5FE170500001305E53A8A05AA958C41F7
:10185000AA9582851443930424041386460010C37A
:1018600098422301E4040547D9AA14400323070042
:1018700013F506089305430039CD032303000CC379
:101880004C40635203161305D002A301A4040CC4F8
:1018900063DD050433036040970200009382023346
:1018A000A945B2841A8532CC16CA2EC81AC6EFE0F2
:1018B0003F87D2423243C245169514211A85FD1442
:1018C00094A0EFE03F83B246C245D24262462A83EB
:1018D000E3FAB6FC85A80323030013F506040CC342
:1018E00045D142031353034161BFED9A14C05DB764
:1018F00008400C4393720508138345006387020078
:101900002320670003A3050001A813750504232005
:1019100067006DD903D305009305F0069702000018
:101920009382C22A639FB60AA145A30104045440CE
:1019300014C4E3C806F608406D9908C0E31303F623
:10194000B284A5F22147639EE5001840058B11CBB8
:10195000544018486347D70013070003A38FE4FEE1
:10196000FD14058E10C82247924602457008A285D4
:10197000BD3B7D576319E50C7D55A250125482542E
:101980001301C1028280144093E6060214C093063C
:101990008007970200009382A224A302D40414407B
:1019A0000C4313F30608138545006306030008C3C0
:1019B00003A3050001A813F3060408C3E30A03FE0A
:1019C00003D3050093F5160081C593E6060214C003
:1019D00063040300C14591BF144093F6F6FD14C0A3
:1019E000D5BFA94599B7970200009382221EA94549
:1019F0003DBF0C401443484893F20508138346004A
:101A00006387020023206700984208C301A82320AF
:101A1000670093F505049842EDD90AA32328040032
:101A2000B28491B7144381451386460010C38442A3
:101A300050402685493919C1058D48C0584018C8FD
:101A4000A30104040DB7144892450245A247268617
:101A500082977D57E302E5F21840098B15EB724738
:101A60004844E35CE5F03A8509BF92450245A24748
:101A700085463AC832C68297FD56E30FD5EE4247F7
:101A8000324605075444F2458D8EE340D7FEC1BF70
:101A9000014713069401FDB7511122C22A842E85F5
:101AA000B285368623A0018206C4A120FD576316A5
:101AB000F50083A7018291C31CC0A24012443101EA
:101AC00082809307800523A0F1827D558280930751
:101AD000800523A0F1827D5582809307800523A095
:101AE000F182014582809307800523A0F1827D5514
:101AF00082809307800523A0F1827D5582800000BB
:101B00003D3D3D204C494E452053454E534F5220BC
:101B100054455354204D4F4445203D3D3D0D00005C
:101B2000466F726D61743A204C31204C32204C3338
:101B3000204C34204C35207C20425954450D000067
:101B400020202000256420007C2000002564000067
:101B50000D00000000000000000000000000000078
:101B60000000000000000000000000000000000075
:101B70000000000000000000000000000000000065
:101B80000000000000000000000000000000000055
:101B90000000000000000000000000000000000045
:101BA0000000000000000000000000000000000035
:101BB00000000000232D302B20000000686C4C003A
:101BC0006566674546470000303132333435363775
:101BD0003839414243444546000000003031323339
:101BE0003435363738396162636465660000000059
:101BF00064FCFFFF7AFCFFFF3AFCFFFF3AFCFFFFAB
:101C00003AFCFFFF3AFCFFFF7AFCFFFF3AFCFFFFC4
:101C10003AFCFFFF3AFCFFFF3AFCFFFF02FEFFFF2A
:101C200000FDFFFF96FDFFFF3AFCFFFF3AFCFFFFC0
:101C300034FEFFFF3AFCFFFF00FDFFFF3AFCFFFF11
:081C40003AFCFFFF9EFDFFFFCF
:101C48000102030405060708010203040506070844
:101C5800006CDC02C80000200204060804080C100E
:101C68000810182010203040204060800102030432
:101C7800050607080102030405060708000000001E
:101C8800941B0000741B0000541B0000000000009F
:101C9800000000000000000000000000000000003C
:101CA800000000000000000000000000000000002C
:101CB800000000000000000000000000000000001C
:101CC800000000000000000000000000000000000C
:101CD80000000000000000000000000000000000FC
:0C1CE8003C000020000000003C00002038
:00000001FF
