:2000D400AC82AD83AEF0FF53B1BF53B2BF53B17F53B27F759850438920438780438E1053BC
:2000F400C4DF8C448D458E468F4790D4BC75F00FE41215E3AC82C3E49CF58DD28ED299229B
:20011400AC82AD83AEF0FF53B1BF53B2BF53B17F53B27F75985043878053C4F843C4208CD9
:20013400448D458E468F4790D4BC75F00FE41215E3AC82AD83AEF0FFE4C39CE49DF974013C
:200154009EE49F89C6C3E49CFC8CC543C408D299223098FD859982C29822AF82C2998F995A
:200174003099FD22AC82AD83AEF0FF53B1FB53B2FB53B3BF53B4BF75F85075C40853C4DF0A
:200194008C448D458E468F4790D4BC75F00FE41215E3AC82AD83AEF0FFE4C39CE49DF97451
:2001B400019EE49F89C6C3E49CFC8CC543C4082230F8FD859A82C2F822AF82C2F98F9A3012
:0301D400F9FD2210
:2001D700AC82AD83AEF0FF538EF7438901D28C8C008D018E028F031CBCFF091DBDFF051EF2
:2001F700BEFF011FE8494A4B600B758A76758CFF108DDC80FBC28C22AC82AD83AEF0FF53B3
:200217008EF7438901D28C8C008D018E028F031CBCFF091DBDFF051EBEFF011FE8494A4B5C
:20023700600B758A98758CFA108DDC80FBC28C22AC82AD83AEF0FF538EF7438901D28C8CBC
:20025700008D018E028F031CBCFF091DBDFF051EBEFF011FE8494A4B600B758ADB758C27EB
:20027700108DDC80FBC28C22AC82AD83AEF0FF538EEF438910D28E8C008D018E028F031CA4
:20029700BCFF091DBDFF051EBEFF011FE8494A4B600B758BF6758DC9108FDC80FBC28E2250
:2002B700AC82AD83AEF0FF53C9BF53C9DF43C910D2CA8C008D018E028F031CBCFF091DBDA8
:2002D700FF051EBEFF011FE8494A4B600B75CCE575CDF710CFDC80FBC2CA22AC82AD83AE88
:2002F700F0FF75C40743C4088C008D018E028F031CBCFF091DBDFF051EBEFF011FE8494A39
:200317004B601375C5D775C6FFABC4530310BB10F853C4EF80D253C4F722AC82AD83AEF0A1
:20033700FF75C40743C4088C008D018E028F031CBCFF091DBDFF051EBEFF011FE8494A4B9D
:19035700601375C55775C6CDABC4530310BB10F853C4EF80D253C4F72261
:20008200785476000876007856760008760078587600087600785A7600087600785C760008
:0D00A200087600785E76000876007508008C
:20037000AF82C2EFD2EE75910053E18F530707EFC454F042E153E2F1E544540725E042E2B4
:2003900022D2EE22A2EFB39201E433F58222E582FF25E0FE2448F9ACC3E4C454F0CCC4CC3D
:2003B0006CCC54F0CC6CFDAAC253020F7B00EC4202ED4203A70209A703198FF005F07C0169
:2003D0007D008006EC2CFCED33FDD5F0F7AA087B00EA5204EB5205EC4D7020EE2454F887C0
:2003F0000409870519A60408A6058FF005F07401800225E0D5F0FB42088041EE2454F886BF
:2004100005088607188D03EFC40354F8CBC403CB6BCB54F8CB6BFCEBC39DFDEC9FFF87031B
:20043000098704EB2DFDEC3FC423CDC423541F6DCD541FCD6DCDFFA60508A607EE2454F958
:20045000878209878322C2EF2253E1FE22AF82759100AE44740F5EF5CEAD44E545C4CDC4EA
:20047000540F6DCD540FCD6DCD8DCFEF600443E2202253E2DF22E582FF24F7500122EF2412
:200490000A83F582EF240D83F583E473AECEF114375A7DA0C304040405050505050553E87F
:2004B000F043B38053B47F75F60043F60143E101754400850982120370C2EFD2EE2253E85A
:2004D000F043E80143AC0153ADFE75F60043F60243E101754401850982120370C2EFD2EE77
:2004F0002253E8F043E80243B18053B27F75F60043F60443E101754402850982120370C29B
:20051000EFD2EE2253E8F043E80343B14053B2BF75F60043F60843E10175440385098212FA
:200530000370C2EFD2EE2253E8F043E80443B12053B2DF75F60043F61043E1017544048538
:200550000982120370C2EFD2EE2253E8F043E80543B11053B2EF75F60043F62043E1017537
:200570004405850982120370C2EFD2EE2253E8F043E80643B10853B2F775F60043F640437F
:20059000E101754406850982120370C2EFD2EE2253E8F043E80743B30253B4FD75F600437B
:2005B000F68043E101754407850982120370C2EFD2EE2253E1FE53E8F043E80853E8F843A2
:2005D000E101C2EFD2EE22E582FF24F7500122EF240A83F582EF240D83F583E473FF1228E0
:2005F0003E546A8096AC05060606060606060653E8F043B38053B47F75F60043F60143E108
:20061000012253E8F043E80143AC0153ADFE75F60043F60243E1012253E8F043E80243B129
:200630008053B27F75F60043F60443E1012253E8F043E80343B14053B2BF75F60043F608BA
:2006500043E1012253E8F043E80443B12053B2DF75F60043F61043E1012253E8F043E8059B
:2006700043B11053B2EF75F60043F62043E1012253E8F043E80643B10853B2F775F6004365
:20069000F64043E1012253E8F043E80743B30253B4FD75F60043F68043E1012253E1FE5384
:0C06B000E8F043E80853E8F843E10122B9
:2006BC00AE82AF83538EBF53DF3F43DF0353DFFB8E448F4575460075470090A97875F01F07
:2006DC00E41215E3AC82AD83EC24FFF50AED34FFF50B850BD1850AD9D2DED2DF2285820D24
:2006FC00E50C7004FDFE804FA90C7A007B007C00A80AAF0B08B800010F88448F45754600F2
:20071C0075470089828A838BF0EC121680AA82AB83ACF0FF754464E4F545F546F5478A8227
:20073C008B838CF0EF1215E3AA82AB83ACF0FFEA24FFFDEB34FFFEC3E50A9DE50B9E5004CE
:20075C00AD0AAE0BE50D24FA50030207F3E50D75F003A49007737302078502078B02079177
:20077C0002079702079D0207C98ED28DDA80688ED38DDB80628ED48DDC805C8ED58DDD80F7
:20079C0056A2AF9200C2AF75C7AA75C755439101A20092AF8EC48DCCA2AF9200C2AF75C729
:2007BC00AA75C7555391FEA20092AF802AA2AF9200C2AF75C7AA75C755439101A20092AFF0
:2007DC008EC58DCDA2AF9200C2AF75C7AA75C7555391FEA20092AFD2DE22AF82E4FDFEEFEF
:2007FC0024FA50030208C1EF2F90080973800A80198028803680448078AFD27C00AADA7B36
:20081C0000EA4CFDEB4FFE0208C1AFD37C00AADB7B00EA4CFDEB4FFE0208C1AFD47C00AAA9
:20083C00DC7B00EA4CFDEB4FFE807AAFD57C00AADD7B00EA4CFDEB4FFE806AA2AF9200C2E4
:20085C00AF75C7AA75C755439101A20092AFAFC47C00AACC7B00EA4CFDEB4FFEA2AF920070
:20087C00C2AF75C7AA75C7555391FEA20092AF8034A2AF9200C2AF75C7AA75C7554391015B
:20089C00A20092AFAFC57C00AACD7B00EA4CFDEB4FFEA2AF9200C2AF75C7AA75C75553915D
:2008BC00FEA20092AFED4E7003F582220DBD00010E8D448E45754600754700900064E4F533
:2008DC00F0121680AC82AD83AEF0FFAA0AAB0B0ABA00010B8A448B457546007547008C820C
:0808FC008D838EF0EF0215E37D
:1E090400AE82AF8310990280FB8E998E828F832210980280FBAE997F008E828F8322B3
:20092200AF82AEA8C2AFA2AF9200C2AF75C7AA75C755439F01A20092AF75A60075A7007580
:20094200AF0CA2AF9200C2AF75C7AA75C75543A401A20092AFADAEE5A604F5A6A2AF9200DC
:20096200C2AF75C7AA75C75543A401A20092AFACAE75A63075A70075AF04A2AF9200C2AF85
:2009820075C7AA75C75543A401A20092AFABAEE5A604F5A6A2AF9200C2AF75C7AA75C755C5
:2009A20043A401A20092AFAAAEBF084C8B07EF2FFF8A017401592FFFE4BC670104F9E4BD23
:2009C200500104FD5960088F01E924F0FF800EE4BC3601045D60068F05ED24F2FF74015FE0
:2009E200FAEFC313FBA2AF9200C2AF75C7AA75C75543A401A20092AF75C7AA75C7558B841F
:200A020075C7AA75C7558A85A2AF9200C2AF75C7AA75C755539FFEA20092AF8EA822AF8227
:200A2200BF0202800ABF03028011BF04538026758202120A83758202020AE5758203120ABE
:200A4200E5A2AF9200C2AF75C7AA75C7555397DFA20092AF22758202120A83758202120A69
:200A6200E5758204120A83758204120AE5A2AF9200C2AF75C7AA75C7555397DFA20092AF82
:200A820022AF82BF02028005BF042A801AA2AF9200C2AF75C7AA75C755439720A20092AF8A
:200AA200E59620E51080F975C7AA75C7554397C0E59630E3FB22AF82759100BF02028005F0
:200AC200BF041F8014A2AF9200C2AF75C7AA75C7555397DFA20092AF2275C7AA75C755533B
:200AE200973F22AF82759100A2AF9200C2AFBF0202800ABF0302802DBF04658050A2AF92D8
:200B020000C2AF75C7AA75C7555396FBA20092AFA2AF9200C2AF75C7AA75C7555396FDA2D1
:200B22000092AF803BA2AF9200C2AF75C7AA75C755439604A20092AFA2AF9200C2AF75C79C
:200B4200AA75C7555396FDA20092AF8013A2AF9200C2AF75C7AA75C755439608A20092AF6D
:050B6200A20092AF2289
:0900AF00750E00750F00751000BC
:200B6700120114D2ACD2AF2202016EAD82AE83AFF08D828E838FF01216EEFC60188C820D72
:200B8700BD00010EC007C006C005120B6FD005D006D00780DC22E50E7003F5822290003BDA
:200BA700E0FF7E01C3EE950E50238E051DED3395E0FCED243BFDEC3400FCEE243BF582E4BB
:200BC7003400F583E08D828C83F00E80D7E50E14F50EE50E243BF582E43400F583E4F08F49
:200BE7008222850E8222750E0022C0E0C082C083C007C0D075D000109802801974E2250EE1
:200C07004013E50EFF04F50EEF243BF582E43400F583E599F0D0D0D007D083D082D0E032C0
:1E170E00000000000000000000000000000000000000000000000000000000000000BD
:04000000020029329F
:03000B00020EE7FB
:0100130032BA
:03001B0002159E2D
:03002300020BF1DC
:1400B800751100E4F512F513F514F515F516F517C202C20308
:0300D10002002604
:03002600020C27A2
:200C27007E007F007CE87D031CBCFF011DEC4D70F70EBE00010FC3EE9464EF940040E57595
:200C47008208120922900960E4F5F0120B679003E81206BC53B3FB43B404C29243DE01536C
:200C6700B1FE43B201C28043DE08750C007582001206F97582001207F6AF82900006EFF028
:200C8700750C007582031206F97582031207F6AF82900008EFF053B3F743B408C29353B3B9
:200CA700EF43B410C2941215BF1215D7AC82AD83AEF0FFC007C006C005C004120BE9E5827F
:200CC700D004D005D006D007605BC007C006C005C004120B9DAB82D004D005D006D007BBEE
:200CE7007C14E5112409F582E43400F583E4F0D20275110080BD74C125114024BB300040CE
:200D070005EB24C65008BB2C028003BB2DA5AA110511EA2409F582E43400F583EBF08093C4
:200D2700751100808E200203020E15E4F518F519F8F9E82409FAE93400FB8A828B83E0605D
:200D47001EE82409F582E93400F583E0FBBB2C080518E4B51802051908B800D60980D3742F
:200D670007B51806E4B519028003020E13752101752200752300752402752500752600752D
:200D87002703752800752900752A04752B00752C00752D05752E00752F00753006753100C4
:200DA70075320075330775340075350075360875370075380090000975F000120FF89000D0
:200DC70006E0F50C7582001206F9900008E0F50C7582031206F9900005E0FBA293E433B528
:200DE70003028008900005E024FF9293900007E0FBA294E433B503028008900007E024FF07
:200E070092941215D7AC82AD83AEF0FFC202C007C006C005C0041215D7A882A983AAF0FBE9
:200E2700D004D005D006D007E8C39CF8E99DF9EA9EFAEB9FFBC374E898740399E49AE49BCC
:200E47004003020CBA750C00758200C007C006C005C0041206F9750C007582031206F9D085
:0A0E670004D005D006D007020CBA33
:08172C0000000000E8030000CA
:0500CC00E4F51AF51B2C
:200E710043AC0153ADFE43B12053B2DF43B34053B4BF43B10453B2FB5389F0438901C28D9F
:200E9100538EF7758CFF758A76D2A9D2AFD28C22AF82BF0400400490000022EF75F002A494
:200EB1002465F582740035F0F583E0FEA3E08E82F58322AF82BF0400400490000022EF75B7
:200ED100F002A4246DF582740035F0F583E0FEA3E08E82F58322C0E0C0F0C082C083C007AB
:200EF100C006C005C004C003C002C0D075D000C28D7F00EF2F900F0A738006800B8010800F
:200F110015A2B0E433FE8013A285E433FE800CA296E433FE8005A282E433FEEF2461FCE48A
:200F31003400FD8C828D83E07027EE6024EF75F002A42465FC740035F0FD8C828D83E0FA5B
:200F5100A3E0FB0ABA00010B8C828D83EAF0EBA3F0EF2461F582E43400F583EEF00FBF0491
:200F7100004090051AE4B51A02051BAF1B74F62F50587F00EF75F002A4FDAEF02465F5827D
:200F9100EE3400F583E0FBA3E0FC4B6011ED246DF582EE3400F583EBF0ECA3F0800EED2408
:200FB1006DF582EE3400F583E4F0A3F0EF75F002A42465F582740035F0F583E4F0A3F00FBA
:200FD100BF040040AFE4F51AF51B758CFF758A76D0D0D002D003D004D005D006D007D083E8
:070FF100D082D0F0D0E03205
:141734000000000000000000000000000000000000000000A1
:200FF800AD82AE83AFF08D828E838FF01216EEFC6011BC30004005EC24C650070DBD00E6AA
:201018000E80E3AA21AB22AC238A828B838CF0E4121648A31216488D398E3A8F3B8539824B
:20103800853A83853BF01216EEF9B930004059E924C640548A828B838CF01216EEF544A326
:201058001216EEF54590000AC004C003C002C001121663A882AF83D001D002D003D0047ED5
:2010780000E924D0F9EE34FFFEE928F8EE3FFF8A828B838CF0E8121648A3EF121648053900
:20109800E4B53999053A8095AD39AE3AAF3B8D828E838FF01216EEFC6011BC30004005EC82
:2010B80024C650070DBD00E60E80E3AA24AB25AC268A828B838CF0E4121648A31216488DBC
:2010D800398E3A8F3B853982853A83853BF01216EEF9B930004059E924C640548A828B83E9
:2010F8008CF01216EEF544A31216EEF54590000AC004C003C002C001121663A882AF83D0BF
:2011180001D002D003D0047E00E924D0F9EE34FFFEE928F8EE3FFF8A828B838CF0E81216EF
:2011380048A3EF1216480539E4B53999053A8095AD39AE3AAF3B8D828E838FF01216EEFCE7
:201158006011BC30004005EC24C650070DBD00E60E80E3AA27AB28AC298A828B838CF0E494
:20117800121648A31216488D398E3A8F3B853982853A83853BF01216EEF9B930004059E9D0
:2011980024C640548A828B838CF01216EEF544A31216EEF54590000AC004C003C002C0013D
:2011B800121663A882AF83D001D002D003D0047E00E924D0F9EE34FFFEE928F8EE3FFF8AB4
:2011D800828B838CF0E8121648A3EF1216480539E4B53999053A8095AD39AE3AAF3B8D82CD
:2011F8008E838FF01216EEFC6011BC30004005EC24C650070DBD00E60E80E3AA2AAB2BACEF
:201218002C8A828B838CF0E4121648A31216488D398E3A8F3B853982853A83853BF01216DB
:20123800EEF9B930004059E924C640548A828B838CF01216EEF544A31216EEF54590000A54
:20125800C004C003C002C001121663A882AF83D001D002D003D0047E00E924D0F9EE34FFC6
:20127800FEE928F8EE3FFF8A828B838CF0E8121648A3EF1216480539E4B53999053A809536
:20129800AD39AE3AAF3B8D828E838FF01216EEFC6011BC30004005EC24C650070DBD00E64E
:2012B8000E80E3AA2DAB2EAC2F8A828B838CF0E4121648A31216488D398E3A8F3B85398285
:2012D800853A83853BF01216EEF9B930004059E924C640548A828B838CF01216EEF544A384
:2012F8001216EEF54590000AC004C003C002C001121663A882AF83D001D002D003D0047E33
:2013180000E924D0F9EE34FFFEE928F8EE3FFF8A828B838CF0E8121648A3EF12164805395D
:20133800E4B53999053A8095AD39AE3AAF3B8D828E838FF01216EEFC6011BC30004005ECDF
:2013580024C650070DBD00E60E80E3AA30AB31AC328A828B838CF0E4121648A31216488DF5
:20137800398E3A8F3B853982853A83853BF01216EEF9B930004059E924C640548A828B8346
:201398008CF01216EEF544A31216EEF54590000AC004C003C002C001121663A882AF83D01C
:2013B80001D002D003D0047E00E924D0F9EE34FFFEE928F8EE3FFF8A828B838CF0E812164D
:2013D80048A3EF1216480539E4B53999053A8095AD39AE3AAF3B8D828E838FF01216EEFC45
:2013F8006011BC30004005EC24C650070DBD00E60E80E3AA33AB34AC358A828B838CF0E4CE
:20141800121648A31216488D398E3A8F3B853982853A83853BF01216EEF9B930004059E92D
:2014380024C640548A828B838CF01216EEF544A31216EEF54590000AC004C003C002C0019A
:20145800121663A882AF83D001D002D003D0047E00E924D0F9EE34FFFEE928F8EE3FFF8A11
:20147800828B838CF0E8121648A3EF1216480539E4B53999053A8095AD39AE3AAF3B8D822A
:201498008E838FF01216EEFC6011BC30004005EC24C650070DBD00E60E80E3AA36AB37AC34
:2014B800388A828B838CF0E4121648A31216488D398E3A8F3B853982853A83853BF012162D
:2014D800EEF9B930004059E924C640548A828B838CF01216EEF544A31216EEF54590000AB2
:2014F800C004C003C002C001121663A882AF83D001D002D003D0047E00E924D0F9EE34FF24
:20151800FEE928F8EE3FFF8A828B838CF0E8121648A3EF1216480539E4B53999053A809593
:041538007582012295
:20153C00AE82AF83EEC3953CFEEF953DFFE4FDFCE542C39540FAE5439541FB8A448B458D33
:20155C00468D478E828F838DF0EC121680AC82AD83AEF0FFE53EC3953CFAE53F953DFB8AFB
:20157C00448B457546007547008C828D838EF0EF1215E3AC82AD83E5402CF582E5413DF5B1
:02159C008322A8
:20159E00C0E0C0D0758DFA758B98051CE4B51C0C051DB51D07051EB51E02051FD0D0D0E020
:2015BE003253890F438910C28F538EEF758DFA758B98D2ABD2AFD28E22851C82851D838512
:0515DE001EF0E51F22D4
:2015E300FB7A20E4FCFDFEFFE5822582F582E58333F583E5F033F5F0EB33FB4017DAE98041
:2016030042E5822582F582E58333F583E5F033F5F0EB33FBEC33FCED33FDEE33FEEF33FF6F
:20162300EC9544ED9545EE9546EF95474013EC9544FCED9545FDEE9546FEEF9547FF438259
:0516430001DABEEB22FC
:06005800E478FFF6D8FD7C
:20003600793AE94400601B7A0190170E783B75A000E493F2A308B8000205A0D9F4DAF275D6
:02005600A0FF09
:1B16480020F71130F6138883A88220F509F6A8837583002280FEF280F5F022A1
:1D166300E5828544F0A4C582C0F08545F0A4D0F025F0C5838544F0A42583F5832295
:20168000AAF0FBE5828544F0A4FCADF0E5838544F0A42DFDE435F0FEE5828545F0A42DFD73
:2016A000E5F03EFEE433FFEA8544F0A42EFEE5F03FFFE5838545F0A42EFEE5F03FFFE58211
:2016C0008546F0A42EFEE5F03FFFEB8544F0A42FFFEA8545F0A42FFFE5838546F0A42FFF8B
:0E16E000E5828547F0A42F8EF08D838C822248
:20005E007800E84400600A790175A000E4F309D8FC783AE84400600C7901900001E4F0A365
:04007E00D8FCD9FAD7
:0D00290075815F12170AE582600302002650
:1C16EE0020F71430F6148883A88220F507E6A88375830022E280F7E49322E0220B
:04170A0075820022C2
:00000001FF
