:0300000002004CAF
:100008000000E2FBEAF2802C0000E0FBEAF080242A
:10001800E6B50202EBF62200E2B50202EBF222009C
:10002800E0B50202EBF02230F6E0A88220F5D3EA30
:10003800C6F582228B822230F6E6A88220F5D98086
:01004800CFE8
:08005F00E4F513F51402004959
:030049000203DDD2
:10006700AE82AF8310990280FB8E998E828F832296
:1000770043B32053B4DFA2AF920075C7AA75C75523
:1000870075910143B32075C7AA75C755759100A22D
:100097000092AF43B12053B2DFA2AF920075C7AA57
:1000A70075C75575910143B12075C7AA75C75575B1
:1000B7009100A20092AF43B11053B2EFA2AF9200EA
:1000C70075C7AA75C75575910143B11075C7AA754C
:1000D700C755759100A20092AF43B10853B2F7A27A
:1000E700AF920075C7AA75C75575910143B10875D9
:1000F700C7AA75C755759100A20092AF43B10253C5
:10010700B2FDA2AF920075C7AA75C7557591014395
:10011700B10275C7AA75C755759100A20092AF4382
:10012700B10153B2FEA2AF920075C7AA75C7557544
:10013700910143B10175C7AA75C755759100A20012
:1001470092AF43B30153B4FEA2AF920075C7AA752D
:10015700C75575910143B30175C7AA75C755759101
:1001670000A20092AF43B30253B4FDA2AF92007551
:10017700C7AA75C75575910143B30275C7AA75C755
:1001870055759100A20092AF43B30453B4FBA2AFDD
:10019700920075C7AA75C75575910143B30475C712
:1001A700AA75C755759100A20092AF43B30853B41F
:1001B700F7A2AF920075C7AA75C75575910143B3EA
:1001C7000875C7AA75C755759100A20092AF43B3CA
:1001D7001053B4EFA2AF920075C7AA75C7557591B2
:1001E7000143B31075C7AA75C755759100A2009250
:1001F700AF2290C20075F001E412056653B1BF4308
:10020700B24022A295E433F508A285E433F509A2AA
:1002170084E433F50AA283E433F50BA281E433F5D2
:100227000CA280E433F50DA290E433F50EA291E41D
:1002370033F50FA292E433F510A293E433F511A23C
:1002470094E433F512227E007F007D00ED2408F947
:100257008704BC01198DF005F07B017C008006EB5B
:100267002BFBEC33FCD5F0F7EB4206EC42070DBD58
:100277000B0040D88E828F8322C013C01474B9C07C
:10028700E0740EC0E07480C0E012070FE58124FB24
:10029700F581227F00EF2408F987067D00C007C09B
:1002A70006C00574BEC0E0740EC0E07480C0E012E2
:1002B700070FE58124FBF581D007BF0A005019C05D
:1002C7000774C1C0E0740EC0E07480C0E012070F6D
:1002D700158115811581D0070FBF0B0040B774C377
:1002E700C0E0740EC0E07480C0E012070F158115DE
:1002F7008115812274C6C0E0740EC0E07480C0E02E
:1003070012070F1581158115817F00BF0B0050461D
:10031700EF2408F987067D00C007C006C00574BE34
:10032700C0E0740EC0E07480C0E012070FE58124BE
:10033700FBF581D007BF0A005019C00774D3C0E08E
:10034700740EC0E07480C0E012070F158115811587
:1003570081D0070F80B5C013C01474D5C0E0740EE8
:10036700C0E07480C0E012070FE58124FBF581220D
:100377007F00EF2408F9E760067D317E0080047D69
:10038700307E00C007C005C00674E7C0E0740EC029
:10039700E07480C0E012070FE58124FBF581D007E8
:1003A7000FBF0B0040CC74C3C0E0740EC0E0748074
:1003B700C0E012070F15811581158122C013C014E3
:1003C70074EAC0E0740EC0E07480C0E012070FE565
:1003D7008124FBF5812275B10075B20075B30075F4
:1003E700B40075AC0075AD001200771201F99000EA
:1003F70064E4F5F012045F74F3C0E0740EC0E074B7
:1004070080C0E012070F15811581158112020A12AB
:10041700024D8582138583141202FB90001EE4F5BA
:06042700F012045F80E604
:100EB90025750D0A0025750020000D0A007B227397
:100EC900656E736F7273223A5B002C005D2C227081
:100ED90061747465726E223A25757D0D0A00256369
:100EE900004C3A253033580D0A004C696E6520468E
:100EF9006F6C6C6F77657220537461727465640DE1
:020F09000A00DC
:10042D00AC82AD83AEF0FF538EF7438901D28CECD5
:10043D004D4E4F601A758A7E758CFF108D0280FBB4
:10044D001CBCFF091DBDFF051EBEFF011F80E0C2C4
:10045D008C22AC82AD83AEF0FF538EF7438901D26F
:10046D008CEC4D4E4F601A758ACA758CFA108D0240
:10047D0080FB1CBCFF091DBDFF051EBEFF011F80BB
:10048D00E0C28C22AC82AD83AEF0FF538EEF438978
:10049D0010D28EEC4D4E4F601A758BEA758DCB10C8
:1004AD008F0280FB1CBCFF091DBDFF051EBEFF0199
:1004BD001F80E0C28E22AC82AD83AEF0FF53C9BF68
:1004CD0053C9DF43C910D2CAEC4D4E4F601A75CCDB
:1004DD003075CDF810CF0280FB1CBCFF091DBDFF90
:1004ED00051EBEFF011F80E0C2CA22AC82AD83AEE5
:1004FD00F0FF75C40743C408EC4D4E4F602075C521
:10050D002C75C6CFABC4530310BB10F853C4EF1CEE
:10051D00BCFF091DBDFF051EBEFF011F80DA53C4C0
:10052D00F722AC82AD83AEF0FF75C40743C408EC6F
:10053D004D4E4F602075C5D875C6FFABC453031023
:10054D00BB10F853C4EF1CBCFF091DBDFF051EBE3B
:10055D00FF011F80DA53C4F722AC82AD83AEF0FFEA
:10056D0053B1BF53B2BF53B17F53B27F7598504350
:10057D008920438780438E1053C4DF8C178D188ECE
:10058D00198F1A90424075F00FE4120682AC820C5E
:10059D00C3E49CF58DD28ED29922AC82AD83AEF0A0
:1005AD00FF53B1BF53B2BF53B17F53B27F75985054
:1005BD0043878053C4F843C4208C178D188E198F30
:1005CD001A90424075F00FE4120682AC82AD83AEF4
:1005DD00F0FF74FFC39C74FF9DF9E49EE49F89C6F0
:1005ED0074FFC39CF5C543C408D299223098FD858C
:1005FD009982C29822AF82C2998F993099FD22AC0F
:10060D0082AD83AEF0FF53B1FB53B2FB53B3BF5377
:10061D00B4BF75F85075C40853C4DF8C178D188E90
:10062D00198F1A90424075F00FE4120682AC82AD1C
:10063D0083AEF0FF74FFC39C74FF9DF9E49EE49FAD
:10064D0089C674FFC39CF5C543C4082230F8FD85E7
:10065D009A82C2F822AF82C2F98F9A30F9FD2275C3
:10066D00C7AA75C75575FD5A75C7AA75C75575FDC6
:10067D00A575820022FB7A20E4FCFDFEFFE58225B4
:10068D0082F582E58333F583E5F033F5F0EB33FB4B
:10069D004017DAE98042E5822582F582E58333F55C
:1006AD0083E5F033F5F0EB33FBEC33FCED33FDEE8E
:1006BD0033FEEF33FFEC9517ED9518EE9519EF9589
:1006CD001A4013EC9517FCED9518FDEE9519FEEFFC
:0A06DD00951AFF438201DABEEB22FA
:06005900E478FFF6D8FD7B
:1006E700C0168581167E008E83120067D01622857C
:1006F700823185833285F033E4F52EF52FF5308589
:1007070015349006E70207CDC016E581F51624FBE0
:10071700F534E4F52EF52FF530E51624FBF8863190
:100727000886320886339006E71207CDD01622AF27
:1007370082C024C025C0261207438007C022C023D9
:100747008F8222158115811581052CE4B52C0205B0
:100757002D22AF8274302FFF24C6500B74072FFF52
:10076700E52160034307208F82020736E582FFC435
:10077700540FF582C007120759D007740F5FF5822F
:10078700020759858217AB27AC28AD29AE2AAA2BB9
:10079700751920EA2AF518EE2354014518FAEB2BB0
:1007A700FBEC33FCED33FDEE33FEC3EA951740084F
:1007B700EAC39517FA430301D519D88B278C288DDF
:1007C700298E2A8A2B22858222858323852E2485BA
:1007D7002F25853026E4F52CF52DAD31AE32AF331C
:1007E7008D828E838FF0120E99FC74012DF531E402
:1007F7003EF5328F33ECFF7003020E5DBF2502809A
:1008070003020E55E4F535F536F537F538F539F5C4
:100817003AF53BF53CF53EF53FF5407541FF75422E
:10082700FFAC31AD32AE338C828D838EF0120E99D0
:10083700F546A3AC82AD838C318D328E337425B5EA
:100847004608854682120736809074D025464003B5
:100857000208F5E54624C650030208F574FFB541C2
:100867004EB5424BC004C005C006853F17854018EA
:1008770090000AC006C005C004120E7CAA82AB8392
:10088700D004D005D006AE467D00EE2AFAED3BFB3C
:10089700EA24D0F53FEB34FFF540E53F4540D0066D
:1008A700D005D004600302082E75360102082EC059
:1008B70004C005C00685411785421890000AC00686
:1008C700C005C004120E7CAA82AB83D004D005D029
:1008D70006AD467E00ED2AFAEE3BFBEA24D0F54151
:1008E700EB34FFF542D006D005D00402082E742E53
:1008F700B5461574FFB54105B54202800302082EBF
:10090700E4F541F54202082E749F2546500EE54650
:10091700248540085346DF75210180037521007443
:1009270020B546030209C2742BB546030209BC74FD
:100937002DB5460280797442B546030209C874434F
:10094700B546030209D47444B54603020B667446E0
:10095700B54603020B7D7448B5460302082E744959
:10096700B54603020B66744AB5460302082E744C5B
:10097700B546028052744FB54603020B6E7450B5EC
:100987004603020AFB7453B5460280627454B546A7
:100997000302082E7455B54603020B737458B54607
:1009A70003020B78745AB5460302082E020B8275B0
:1009B700350102082E75370102082E753801020825
:1009C7002E753A0102082E753B0102082EE53A60A2
:1009D7000AE53414F989348706800BE53424FEFDD3
:1009E7008D348D0187068E82120736020B8EE53411
:1009F70024FDFE8E348E01870409870509870619B1
:100A0700198C278D288E298C828D838EF0120E6487
:100A170085824785834874FFB54109B542068547F6
:100A270041854842E535703DC3E547953FE5489523
:100A3700405032E53FC39547F53FE5409548F540BF
:100A4700AC3FAB408C028B061CBCFF011BEA4E601F
:100A570010758220C004C003120736D003D004806B
:100A6700E38C3F8B40AD41AE42AA27AB28AC298A25
:100A7700828B838CF0120E99FC6033C3E49D7480E3
:100A87008EF063F08095F050251DBDFF011E8C820E
:100A9700C006C005120736D005D006AA27AB28AC7A
:100AA700290ABA00010B8A278B288C2980BBE535D8
:100AB7007003020B8EC3E547953FE5489540400319
:100AC700020B8EE53FC39547F53FE5409548F54056
:100AD700AE3FAD408E038D041EBEFF011DEB4C7073
:100AE70003020B8A758220C006C005120736D0059F
:100AF700D00680E0E53424FDFC8C348C01870209A4
:100B0700870309870419198A278B288C29AC29BCE4
:100B1700800040047B438014BC600040047B50800D
:100B27000BBC400040047B4980027B588B82C0038A
:100B370012073675823A12073675823012073675F4
:100B47008278120736D003BB4902800BBB50028064
:100B570006852882120773852782120773802875F6
:100B67003901753E0A8020753E08801B753E0A8054
:100B770016753E108011753C01800C854682120760
:100B87003680048E3F8D40E53C605BE53424FCFEF7
:100B97008E348E018703098704098705098706199B
:100BA70019198B278C288D298E2A75270B75280FE5
:100BB70075298085274985284A85294B7401254948
:100BC700FAE4354AFBAE4B8A278B288E2985498262
:100BD700854A83854BF0120E99FD70030207E18D5C
:100BE7008212073680CDE53E70030207E1E53A60E1
:100BF70032E53414F9893487067D007C007B008E4A
:100C0700278D288C298B2AE5397072AB27AC28AD44
:100C170029AE2A7C007D007E008B278C288D298EAB
:100C27002A805AE53B6021E53424FCFE8E348E0190
:100C370087030987040987050987061919198B2767
:100C47008C288D298E2A8035E53424FEFE8E348E3D
:100C570001870509870619EE3395E0FCFB8D278E82
:100C6700288C298B2AE5397014AB27AC28AD29AE1F
:100C77002A7D007E008B278C288D298E2AE53960F6
:100C87002DAB27AC28AD29E52A30E71FAB27AC28C9
:100C9700AD29AE2AC3E49BFBE49CFCE49DFDE49EE6
:100CA700FE8B278C288D298E2A8003753900753D88
:100CB700017951E4F549F54A752B00853E82C0015B
:100CC70012078AD001E53D7013E52BC454F0FCE50B
:100CD7002BC4540F4204E74CF7198002A72B740169
:100CE7002549F549E4354AF54AE53DB40100E433C1
:100CF700F53DAA27AB28AC29AE2AEA4B4C4E70B873
:100D07008945854943854A44E53F45407005753F18
:100D170001F540E536702FE535702BAA3FAB40AEA5
:100D2700430E8E057E00C3ED9AEE9B50157582200B
:100D3700C003C002120736D002D0031ABAFF011B44
:100D470080DD8A3F8B40E539601175822D120736A9
:100D5700153F74FFB53F021540802EE543454460BB
:100D670028E537601175822B120736153F74FFB5DA
:100D77003F0215408013E538600F75822012073651
:100D8700153F74FFB53F021540E535702FAE3FADF7
:100D9700408E038D041EBEFF011DC3E5439BE54442
:100DA7009C503AE53660047C3080027C208C82C0FF
:100DB70006C005120736D005D00680D5C3E5439592
:100DC7003FE5449540500FE53FC39543F53FE54068
:100DD7009544F540800BE4F53FF54080048E3F8D48
:100DE70040A945AD43AE448D038E041DBDFF011ED2
:100DF700EB4C602FE53DB40100E433F53D70090984
:100E0700E7C4540FF52B80078704740F5CF52B8517
:100E17002B82C006C005C001120759D001D005D0EA
:100E27000680C4E53570030207E1AD3FAE408D0390
:100E37008E041DBDFF011EEB4C70030207E1758296
:100E470020C006C005120736D005D00680E08F8285
:0D0E57001207360207E1852C82852D8322CB
:0B0F0B003C4E4F20464C4F41543E002E
:100E6400AA82AB83120E996003A380F8C3E5829A29
:100E7400F582E5839BF58322E5828517F0A4C5827C
:100E8400C0F08518F0A4D0F025F0C5838517F0A430
:050E94002583F5832217
:0D004C00758151120EB5E582600302004976
:100E990020F71430F6148883A88220F507E6A88382
:100EA90075830022E280F7E49322E0227582002212
:00000001FF
